:100000000C9463000C948B000C948B000C948B006C
:100010000C948B000C948B000C948B000C948B0034
:100020000C948B000C948B000C94DC010C94020259
:100030000C948B000C948B000C948B000C948B0014
:100040000C948B000C948B000C948B000C948B0004
:100050000C9494020C9428020C945E020C948B0075
:100060000C948B000C948B000C948B000C948B00E4
:100070000C948B000C948B000C948B000C948B00D4
:100080000C948B000C948B000C948B000C948B00C4
:100090000C948B000C948B000C948B000C948B00B4
:1000A0000C948B000C948B000C948B00670B6B0BE7
:1000B000810B6D0B810B6F0B760BC10BC10B7A0B98
:1000C000C10BC10B140411241FBECFEFDAE0DEBF59
:1000D000CDBF11E0A0E0B1E0E4EFFCE102C005908B
:1000E0000D92A630B107D9F722E0A6E0B1E001C039
:1000F0001D92A139B207E1F710E0C3E6D0E004C0D9
:100100002197FE010E94720EC236D107C9F70E94E4
:10011000AA030C94780E0C940000683040F470E050
:10012000660F771FFC01E60FF71F51834083089588
:100130007F928F929F92AF92BF92CF92DF92EF9277
:10014000FF920F931F93CF93DF93762EEA018901DD
:10015000C82ED92EA82EB92EE12CF12C88248394F8
:10016000912CC4010E2C02C0880F991F0A94E2F74B
:10017000972D9823981307C0F501808191810097EE
:1001800011F00E942E04FFEFEF1AFF0A22E0A20EE8
:10019000B11C87E0E816F10421F7209791F1AE0138
:1001A000E9EFF0E03197F1F700C00000415051094C
:1001B000B9F727C0C7010C2E02C0880F991F0A94F7
:1001C000E2F7972D9823981307C0F601808191815B
:1001D000009711F00E943F042196F2E0CF0ED11C4F
:1001E000C730D10539F70115110589F0980189EF5C
:1001F00090E00197F1F700C0000021503109B9F7F4
:1002000006C0C0E0D0E0EE24E394F12CD3CFDF9120
:10021000CF911F910F91FF90EF90DF90CF90BF9003
:10022000AF909F908F907F90089520E14DE06CE219
:1002300071E00E94F30881E008950F93CF934091FD
:10024000F2005091F30065E271E00E94E60881E55A
:1002500091E00E947904C1E08C2780930801E5E2D7
:10026000F1E0068124813581428153816081718171
:1002700081E591E00E94CD0480910B0190910C01E9
:10028000A0910D01B0910E010196A11DB11D8093A9
:100290000B0190930C01A0930D01B0930E01C0933C
:1002A000090181E0CF910F9108958F929F92AF92B3
:1002B000BF92CF92DF92EF92FF920F931F93CF9353
:1002C000DF93CDB7DEB760970FB6F894DEBF0FBEF1
:1002D000CDBF6C2D892D823A59F128F4803A51F026
:1002E000813AD9F055C0843A91F160F1853A09F428
:1002F0004CC04EC015BC8A2D90E09B29092E000CE5
:10030000AA0BBB0B80930B0190930C01A0930D01E2
:10031000B0930E0182E085BD3BC015BC4A2D50E074
:100320005B2981E591E00E94AF0482E085BD30C089
:1003300015BC8A2D90E09595879588BDA7BC82E075
:1003400085BD26C01092070182E085BD21C0C11085
:1003500008C08A2D90E09B299093050180930401A9
:1003600017C0613041F48A2D90E09B2990930301DE
:10037000809302010DC0623059F48A2D90E09B29D0
:10038000909301018093000103C081E080930601F6
:1003900081E060960FB6F894DEBF0FBECDBFDF914F
:1003A000CF911F910F91FF90EF90DF90CF90BF9072
:1003B000AF909F908F9008951F920F920FB60F925B
:1003C00011242F933F934F935F936F937F938F935A
:1003D0009F93AF93BF93EF93FF938FE691E00E94BB
:1003E000A80AFF91EF91BF91AF919F918F917F915B
:1003F0006F915F914F913F912F910F900FBE0F9092
:100400001F9018951F920F920FB60F9211242F93E1
:100410003F934F935F936F937F938F939F93AF938C
:10042000BF93EF93FF938FE691E00E94240BFF911F
:10043000EF91BF91AF919F918F917F916F915F915C
:100440004F913F912F910F900FBE0F901F901895D5
:1004500078941F920F920FB60F9211242F933F930F
:100460004F935F936F937F938F939F93AF93BF93BC
:10047000EF93FF9381E591E00E94EB0637B525B33A
:1004800081E090E002C0880F991F3A95E2F78095CD
:10049000909530E08223932385BBFF91EF91BF912C
:1004A000AF919F918F917F916F915F914F913F910C
:1004B0002F910F900FBE0F901F90189578941F9258
:1004C0000F920FB60F9211242F933F934F935F9388
:1004D0006F937F938F939F93AF93BF93EF93FF930C
:1004E00081E591E00E94840638B525B381E090E073
:1004F00002C0880F991F3A95E2F78095909530E0F9
:100500008223932385BBFF91EF91BF91AF919F9180
:100510008F917F916F915F914F913F912F910F90AC
:100520000FBE0F901F90189578941F920F920FB6E0
:100530000F9211242F933F934F935F936F937F9369
:100540008F939F93AF93BF93CF93DF93EF93FF93DB
:1005500080910B0190910C01A0910D01B0910E01C1
:10056000CCE2D1E089879A87AB87BC8781E591E0AF
:100570000E949A049983888381E591E00E94A004F7
:100580009B838A8381E591E00E94A6049D838C83EE
:1005900081E591E00E94AC048E8381E591E00E94A8
:1005A000FC068F8380910701282F220F220F220F34
:1005B00080910801880F880F822B20910A01982FC3
:1005C000922B80910901880F892B8887109209014D
:1005D000B098FF91EF91DF91CF91BF91AF919F9133
:1005E0008F917F916F915F914F913F912F910F90DC
:1005F0000FBE0F901F9018958F929F92AF92CF923F
:10060000EF92FF920F931F93CF93DF93CDB7DEB797
:1006100028970FB6F894DEBF0FBECDBF83E08A8364
:1006200081E08B838C831D828AEF8E831F821886E4
:100630000F2EF4EF8F2E99249394F02DA12CCC241F
:10064000C394E12C00E010E020E030E44FEF50E0F4
:1006500060E07FEF8FE691E00E945A09E980FA801E
:100660000B811C812D813E814F81588561E08FE691
:1006700091E00E94FB07E980FA8000E01C812D8157
:1006800039E14F81588562E08FE691E00E94FB07D7
:1006900045E151E061E08FE691E00E94910A4DE171
:1006A00051E062E08FE691E00E94910A65E571E019
:1006B0008FE691E00E94A20A28960FB6F894DEBF5A
:1006C0000FBECDBFDF91CF911F910F91FF90EF90A3
:1006D000CF90AF909F908F9008958FEF84B987B996
:1006E00090E69AB980BB82E084BD15BC1092800070
:1006F00081E08093810082E887BD81E488BD16BCDB
:10070000EEE6F0E0808186608083EFE6F0E08081B5
:100710008160808342E251E060E08FE091E00E94DE
:100720008D004FE151E061E08FE091E00E948D008B
:10073000089581E591E00E9465042FEF80E792E043
:10074000215080409040E1F700C00000479A82E0CD
:1007500085BD08950E946D030E94FC0209C026E930
:1007600030E046E950E063E08FE091E00E949800BD
:100770008FE691E00E94C408882389F30E949903C0
:1007800001E0F12CD2E0C02F1F2D81E591E00E9405
:10079000FC068770902F09F49F2D9093070180919C
:1007A0000601882399F1F092060181E591E00E940B
:1007B000730780930A0115BCD5BD80910A0180277B
:1007C0008093070123C081E591E00E94FC069C2FE5
:1007D000811101C0912F9093070124EF31E044EF84
:1007E00051E06C2F8FE091E00E94980024EF31E0FF
:1007F00044EF51E063E08FE091E00E949800809127
:100800000701882311F015BC01C0D5BD80910701F7
:100810008111D9CF2EE531E04EE551E063E08FE064
:1008200091E00E949800B1CFE9E3F1E083E0858B8D
:10083000168A178A45E06BE270E082E291E00E943E
:10084000290440E065E270E08FE191E00E94290414
:100850000895FC017183608342830895DC01129640
:100860003C911297ED91FC91208181E090E002C0D3
:10087000880F991F3A95E2F7822B80830895DC0157
:1008800012963C911297ED91FC91208181E090E0CD
:1008900002C0880F991F3A95E2F78095909530E055
:1008A0008223932380830895DC0112963C91129752
:1008B000ED91FC91208181E090E002C0880F991FAA
:1008C0003A95E2F7822780830895FC01158214820D
:1008D000138212821182108213861286118610866C
:1008E00017821682178A168A158A148A138A128A20
:1008F0000895FC01858D089525B12071FC01818D3D
:1009000083FD02C090E001C090E8292B82FD02C067
:1009100090E001C090E6292B81FD02C090E001C06B
:1009200090E4292B80FD02C080E001C080E1282BEB
:1009300025B90895FC018081918195958795089549
:10094000FC0182819381959587950895FC018481AE
:100950009581959587950895FC01818D0895611184
:1009600008C0440F551FFC015783468351834083C1
:100970000895613041F4440F551FFC0151874087B1
:10098000538342830895623039F4440F551FFC01AC
:10099000538742875583448308952F923F924F9205
:1009A0005F926F927F928F929F92AF92BF92CF92FF
:1009B000DF92EF92FF920F931F93CF93DF93CDB708
:1009C000DEB72C970FB6F894DEBF0FBECDBF2C015B
:1009D00011B31C7E1B01220C331CDC0117963C92C8
:1009E0002E9216974A01880C991C19969C928E9209
:1009F00018976901CC0CDD1C1B96DC92CE921A97DD
:100A00006D907C90C30182199309BC0122F4662782
:100A10007727681B790B072E000C880B990B0E9417
:100A2000500D69837A838B839C83F201A280B3800B
:100A3000C50188199909BC0122F466277727681B2C
:100A4000790B072E000C880B990B0E94500D6D83BB
:100A50007E838F839887D2011496ED90FC90159732
:100A6000C7018C199D09BC0122F466277727681BF2
:100A7000790B072E000C880B990B0E94500D69878B
:100A80007A878B879C8720E030E048E453E46981D3
:100A90007A818B819C810E94000E1816A4F020E0C0
:100AA00030E0A90169817A818B819C810E94A80C28
:100AB000811111C080E090E0A8E4B3E489839A83B7
:100AC000AB83BC8308C080E090E0A8E4B3E48983F2
:100AD0009A83AB83BC8320E030E048E453E46D812B
:100AE0007E818F8198850E94000E1816A4F020E068
:100AF00030E0A9016D817E818F8198850E94A80CCC
:100B0000811111C080E090E0A8E4B3E48D839E835E
:100B1000AF83B88708C080E090E0A8E4B3E48D8399
:100B20009E83AF83B88720E030E048E453E46985D2
:100B30007A858B859C850E94000E1816A4F020E013
:100B400030E0A90169857A858B859C850E94A80C77
:100B5000811111C080E090E0A8E4B3E489879A870E
:100B6000AB87BC8708C080E090E0A8E4B3E4898745
:100B70009A87AB87BC8729813A814B815C8160E091
:100B800070E088E493E40E94AD0C20E030E040EA9D
:100B900050E40E943C0C0E941F0DD20153967C939E
:100BA0006E9352971D967C936E931C972D813E8178
:100BB0004F81588560E070E088E493E40E94AD0CBA
:100BC00020E030E040EA50E40E943C0C0E941F0DFF
:100BD000F201758B648B7787668729853A854B850B
:100BE0005C8560E070E088E493E40E94AD0C20E056
:100BF00030E040EA50E40E943C0C0E941F0DD201FC
:100C000057967C936E93569751967C936E9350971C
:100C10002614370414F42FEF01C021E0F201228FD3
:100C20008A149B0414F49FEF01C091E0D2015B96FB
:100C30009C93CE14DF0414F48FEF01C081E0F20125
:100C4000848F12160CF4116019160CF41260181629
:100C50000CF4106111BBD20159960C93C2010E9491
:100C60007C04F201158E812F2C960FB6F894DEBF0E
:100C70000FBECDBFDF91CF911F910F91FF90EF90ED
:100C8000DF90CF90BF90AF909F908F907F906F90AC
:100C90005F904F903F902F900895FC01648575857B
:100CA00082899389969587956817790710F080E275
:100CB00001C080E04685578524893589369527957A
:100CC0004217530708F0806420893189A689B789C3
:100CD000B695A7952A173B0708F08068611571053E
:100CE00021F061507109758764874115510521F024
:100CF00041505109578746872115310521F0215070
:100D00003109318B208B08950E944D0691B3892BB8
:100D100081BB0895FC018081918121E0468157814A
:100D20008417950709F420E02223A9F021E04485E7
:100D30005585452B09F020E0222369F0228D820F92
:100D4000911D27FD9A959183808382899389958748
:100D5000848780E201C080E02281338191E0408578
:100D600051852417350709F490E09923A1F091E00B
:100D700046855785452B09F090E0992361F0938DC6
:100D8000290F311D97FD3A953383228324893589B4
:100D90003787268780642481358191E04285538599
:100DA0002417350709F490E09923A1F091E04089D8
:100DB0005189452B09F090E0992361F0948D290F1A
:100DC000311D97FD3A953583248326893789318BE8
:100DD000208B80680895CF93DF93EC010E948A06F0
:100DE00091B3282F2095922391BB91E0811190E03F
:100DF0009D8FDF91CF91089589B129B1207830E09E
:100E000035952795359527958F71822B0895EF920B
:100E1000FF920F931F93CF93DF937C01D62F611125
:100E200010C0FC012481358135952795428153817D
:100E30005595479500E060EF78ED0E94CD0487015D
:100E40002AC0613091F4FC012481358135952795C4
:100E5000608171817595679500E040EF58ED0E94C3
:100E6000CD0487010E5F1F4F16C0623091F4FC0164
:100E7000428153815595479560817181759567953C
:100E800000E020EF38ED0E94CD0487010C5F1F4F7A
:100E900002C000E010E0F80180819181853D934B14
:100EA000D4F0C1E00D2E01C0CC0F0A94EAF7C701BF
:100EB0000E94FC068C2339F4F80120813181253D04
:100EC000334BACF708C04EEC5FEF6D2FC7010E94AB
:100ED000AF0481E001C080E0DF91CF911F910F91BD
:100EE000FF90EF900895EF92FF920F93CF937C01C4
:100EF00015BC83E085BD60E0C7010E940707C82FCD
:100F00008823F1F061E0C7010E940707C82F8823FA
:100F1000B9F062E0C7010E940707C82F882381F05B
:100F20002091000130910101409102015091030193
:100F3000609104017091050100E0C7010E94CD0499
:100F40008C2FCF910F91FF90EF9008958AE482BF8C
:100F500089B5806189BD89B5826089BD09B400FE0B
:100F6000FDCF0895FC0189E084A782E085A789E090
:100F700090E097A786A710AA81E081AB87AD882370
:100F800039F0DF01AD5BBF4F8C918F5F8C9301C057
:100F900080E082AB611102C080EC01C080E84111A9
:100FA00002C090E001C090E2892B83AB3695279573
:100FB00024AB0895FC0189E085AB84E086AB17AAD9
:100FC00010AE11AE8FEF82AF13AE84AF87AD882322
:100FD00039F0DF01AD5BBF4F8C918F5F8C9301C007
:100FE00080E085AF80A98F5F80AB86A597A5099625
:100FF00097A786A70895EF92FF920F931F93CF9321
:10100000DF93CDB7DEB728970FB6F894DEBF0FBEDB
:10101000CDBFE9827F2DFA820B831C832D833E8313
:101020004F835887F8942FEF260F263008F09EC084
:10103000462F50E0FA829A01220F331F220F331FEE
:10104000220F331F8C01020F131F06511F4F68948C
:10105000FF24F3F8FE013196D80101900D92FA9425
:10106000E1F7E1E0D801EC93241B350B280F391F81
:10107000F901E754FF4FA7E0A083319625E02083D4
:101080002B81213011F0A0E001C0A0E89A01220FCD
:10109000331F220F331F220F331F241B350B280F42
:1010A000391FF901E554FF4F6A2B60833196672F92
:1010B00063706083D901A354BF4FE8E0F0E00C8077
:1010C00002C0EE0FFF1F0A94E2F7ED93FC93F901C3
:1010D000E154FF4F1082733031F4F901E154FF4FB6
:1010E0002E81208323C0713009F5FA01EE0FFF1F16
:1010F000EE0FFF1FEE0FFF1FE41BF50BE80FF91FAC
:10110000DF01A154BF4F21E02C93E454FF4F2F8106
:101110002370622F660F660F38853370B0E13B9FF6
:1011200090011124262B3081232B2083FC0121AD3B
:101130002F5F21AFFA01EE0FFF1FEE0FFF1FEE0F23
:10114000FF1FE41BF50BE80FF91FE754FF4F408129
:10115000DC019E962D913C919F97240F311D9F9607
:101160003C932E939E97789481E001C080E028966E
:101170000FB6F894DEBF0FBECDBFDF91CF911F91A8
:101180000F91FF90EF900895FC0186AD0895E8EE71
:10119000F0E0808180FFFDCF0895E8EEF0E020814F
:1011A0002A772083FC01EE5BFF4F10820895EBEE5F
:1011B000F0E080818062808308956F706093E90021
:1011C000EBEEF0E080818061808308958FEF840FE3
:1011D000442341F0E62FF72FA1EFB0E09C919193CB
:1011E0008150E0F70895CF93DF93DC01AE5BBF4FF2
:1011F0003C91842F90E0830F911D30E02817390730
:101200008CF0442379F090E0C1EFD0E0FD01DB01E8
:10121000A90FB11D8C91888320812F5F20839F5F50
:101220009413F5CFDF91CF9108958F708093E900EB
:1012300008950F93CF93DF9300D000D000D0CDB7A7
:10124000DEB71E821D826C834B832A8309839C81B7
:101250004B8150E4959F90011124242B2E839A8179
:101260002981422F440F440F50E1959F9001112492
:10127000242B2D838F708093E900EBEEF0E08081CA
:1012800081608083EDEEF0E010828E818093EC002F
:101290008D81826080838091EE00881F8827881F5F
:1012A00026960FB6F894DEBF0FBECDBFDF91CF916B
:1012B0000F9108952F923F924F925F926F927F927B
:1012C0008F929F92AF92CF92EF92FF920F931F93C4
:1012D000CF93DF9300D000D0CDB7DEB73C011B0128
:1012E0002A0109831A832B833C83F894DC01DE9660
:1012F0001C920E94A607FF24F394F092D700E8ED19
:10130000F0E08081806180838081806A8083808139
:101310008F7D8083E0EEF0E080818E7F808388E0A7
:101320008093E200F301E7AE69817A818B819C8131
:101330000E941F0D062F10E082E1D30150968C937E
:1013400050975196FC9220E030E040E251E46981F0
:101350007A818B819C810E94050E69837A838B83BD
:101360009C83B801660F771FC801880F991F880FEB
:10137000991F880F991F680F791F072E000C880B83
:10138000990B0E94500D9B01AC0169817A818B8180
:101390009C810E943B0C0E941F0D6295607F102F64
:1013A0000027062BF301138B028B148A158A168AE9
:1013B00080E4878B318E208E538E428E81E091E0C7
:1013C000958F848FEE2009F44CC0ED5BFF4F808138
:1013D0008F5FD3015E968C935E978F5F5F968C9341
:1013E0008F5F8083F30180A381E081A39AE092A3C1
:1013F00096E093A315A304A316A217A210A690E447
:1014000091A782A713A694014A2D6C2DC3010E94B7
:10141000B207C3010E94DA0781E3F301E754FF4FEB
:10142000DF011D928A95E9F780E090E0FC01EE0F64
:10143000FF1FE60DF71DE555FF4F11821082019643
:101440008730910599F7F301EC5BFF4F81E08083D2
:1014500000E023E041E060E080E00E941909789418
:1014600005C0F301168E178E80E0BCCF0F900F9051
:101470000F900F90DF91CF911F910F91FF90EF9000
:10148000CF90AF909F908F907F906F905F904F9094
:101490003F902F900895DF92EF92FF920F931F934A
:1014A000CF93DF93EC01CA50DF4F11E00F2EF0EF26
:1014B000EF2EF12CF02DFE01339760813196D08014
:1014C00031962081088133978081882379F04D2DD2
:1014D000812F0E941909D11005C0F7018081846015
:1014E000808304C0F7018081816080831F5F28961C
:1014F000173009F7DF91CF911F910F91FF90EF9077
:10150000DF9008950F9300E023E040E060E080E08A
:101510000E9419091092E90088E08093F0000F9171
:101520000895FC019FEF960F963058F470E0660F17
:10153000771FCF01860F971FFC01E555FF4F5183A1
:1015400040830895FC01E755FF4F71836083089540
:10155000E1EEF0E08081108283FD0E94820A08950E
:10156000CF93DF9300D0CDB7DEB719821A82FC018A
:10157000268142E0BE016F5F7F4F0E94F30881E049
:101580000F900F90DF91CF910895FC018281E3EEDF
:10159000F0E0808380818068808381E00895EF920D
:1015A000FF920F931F93CF93DF938C01FC018381F4
:1015B000823071F08630A9F18130F1F5B801605FB9
:1015C0007F4F268142E1C8010E94F30881E035C0C7
:1015D000F801268149E0B801645D7F4FC8010E948F
:1015E000F308F801268149E0B8016B5C7F4FC80120
:1015F0000E94F308E801C054DF4F7801FAEEEF0EC5
:10160000F11C8881882339F0F801268147E0BE016A
:10161000C8010E94F3082796CE15DF0591F781E0F7
:101620000CC0B8016E5D7F4FF80126814AE0C80109
:101630000E94F30881E001C080E0DF91CF911F910B
:101640000F91FF90EF9008956F927F928F929F92EB
:10165000AF92BF92CF92DF92EF92FF920F931F93C0
:10166000CF93DF931F92CDB7DEB73C018091F4009A
:10167000F301EF5BFF4F8083E9EEF0E08081D3015F
:10168000A05CBF4F8C9310828091E8008983898190
:1016900083FFB7C0E0EFF0E08081877F80834091D7
:1016A000F2005091F300B301C3010E94E60882EFFB
:1016B0008093E8007894D3018C91882324F4C301AB
:1016C0000E94C70890C0C3010E94CD088CC0C3010E
:1016D0000E94B00A50C0000050C000004EC0C301BC
:1016E0000E94C708C3010E94C50A45C0C3010E94E9
:1016F000CF0A41C0C3010E944B0A81E0F30186AFCB
:101700003CC0F301E755FF4F80819181892BC9F1DE
:101710000190F081E02DD3018C9011969C9011974F
:101720001296AC9012971396BC9013971496CC9087
:1017300014971596DC9015971696EC9016971796B9
:10174000FC90179718960C91189719961C91199759
:101750001A962C911A971B963C911B971C964C91AC
:101760001C971D965C911D971E966C911E971F9657
:101770007C91C3010995882321F0C3010E94CD0803
:1017800003C0C3010E94D7081092E900E0EFF0E027
:1017900080818860808335C0302FA801F7012081C7
:1017A000C601002E02C0880F991F0A94E2F7922FFB
:1017B000982398130BC0F801EE0FFF1FE60DF71DDD
:1017C000E555FF4F80819181892B51F50F5F1F4FA8
:1017D0000730110509F7F301E05CFF4F80818F703E
:1017E0008093E90030C0D3011196EC918E2F90E0E8
:1017F0008C30910508F085CFFC01EA5AFF4F0C941C
:10180000720E01E010E0CC24C394D12C7301B1E43A
:10181000EB0EF11C0F2EF9EEAF2EB12CF02DBCCF3C
:101820003F70F5013083440F551F460D571DFA01D7
:10183000E555FF4F0190F081E02DC3010995C301EB
:101840000E94CD08C3CF0F90DF91CF911F910F91D0
:10185000FF90EF90DF90CF90BF90AF909F908F90D0
:101860007F906F90089580E0089580E0089580E073
:10187000089580E008955058BB27AA270E94530C72
:101880000C94C60D0E94B80D38F00E94BF0D20F0D8
:1018900039F49F3F19F426F40C94B50D0EF4E0953D
:1018A000E7FB0C94AF0DE92F0E94D70D58F3BA1740
:1018B000620773078407950720F079F4A6F50C9466
:1018C000F90D0EF4E0950B2EBA2FA02D0B01B901E6
:1018D00090010C01CA01A0011124FF27591B99F0A6
:1018E000593F50F4503E68F11A16F040A22F232FB2
:1018F000342F4427585FF3CF469537952795A79502
:10190000F0405395C9F77EF41F16BA0B620B730BA8
:10191000840BBAF09150A1F0FF0FBB1F661F771F19
:10192000881FC2F70EC0BA0F621F731F841F48F4CE
:10193000879577956795B795F7959E3F08F0B0CF57
:101940009395880F08F09927EE0F9795879508953E
:101950000E948B0D08F481E008950E94C10C0C9444
:10196000C60D0E94BF0D58F00E94B80D40F029F43A
:101970005F3F29F00C94AF0D51110C94FA0D0C94AB
:10198000B50D0E94D70D68F39923B1F3552391F358
:10199000951B550BBB27AA2762177307840738F0DE
:1019A0009F5F5F4F220F331F441FAA1FA9F335D03B
:1019B0000E2E3AF0E0E832D091505040E695001CEF
:1019C000CAF72BD0FE2F29D0660F771F881FBB1FA9
:1019D000261737074807AB07B0E809F0BB0B802D87
:1019E000BF01FF2793585F4F3AF09E3F510578F0B3
:1019F0000C94AF0D0C94FA0D5F3FE4F3983ED4F3D2
:101A0000869577956795B795F7959F5FC9F7880F86
:101A1000911D9695879597F90895E1E0660F771FD8
:101A2000881FBB1F621773078407BA0720F0621B69
:101A3000730B840BBA0BEE1F88F7E09508950E9494
:101A4000DF0D88F09F5798F0B92F9927B751B0F064
:101A5000E1F0660F771F881F991F1AF0BA95C9F732
:101A600014C0B13091F00E94F90DB1E008950C94CA
:101A7000F90D672F782F8827B85F39F0B93FCCF37D
:101A8000869577956795B395D9F73EF490958095AF
:101A9000709561957F4F8F4F9F4F0895E89409C0CF
:101AA00097FB3EF490958095709561957F4F8F4F91
:101AB0009F4F9923A9F0F92F96E9BB279395F695A7
:101AC000879577956795B795F111F8CFFAF4BB0F25
:101AD00011F460FF1BC06F5F7F4F8F4F9F4F16C089
:101AE000882311F096E911C0772321F09EE8872F13
:101AF000762F05C0662371F096E8862F70E060E0CF
:101B00002AF09A95660F771F881FDAF7880F969547
:101B1000879597F90895990F0008550FAA0BE0E8EB
:101B2000FEEF16161706E807F907C0F0121613069F
:101B3000E407F50798F0621B730B840B950B39F4DF
:101B40000A2661F0232B242B252B21F408950A2645
:101B500009F4A140A6958FEF811D811D089597F985
:101B60009F6780E870E060E008959FEF80EC089543
:101B700000240A941616170618060906089500246C
:101B80000A9412161306140605060895092E0394E6
:101B9000000C11F4882352F0BB0F40F4BF2B11F45A
:101BA00060FF04C06F5F7F4F8F4F9F4F089557FDB9
:101BB0009058440F551F59F05F3F71F04795880FBB
:101BC00097FB991F61F09F3F79F087950895121652
:101BD00013061406551FF2CF4695F1DF08C01616FE
:101BE00017061806991FF1CF8695710561050894AF
:101BF0000895E894BB2766277727CB0197F90895C6
:101C00000E948B0D08F48FEF08950E94180E0C941B
:101C1000C60D0E94B80D38F00E94BF0D20F095232C
:101C200011F00C94AF0D0C94B50D11240C94FA0D19
:101C30000E94D70D70F3959FC1F3950F50E0551F8B
:101C4000629FF001729FBB27F00DB11D639FAA2711
:101C5000F00DB11DAA1F649F6627B00DA11D661F60
:101C6000829F2227B00DA11D621F739FB00DA11D81
:101C7000621F839FA00D611D221F749F3327A00D3B
:101C8000611D231F849F600D211D822F762F6A2FD7
:101C900011249F5750409AF0F1F088234AF0EE0F3C
:101CA000FF1FBB1F661F771F881F91505040A9F769
:101CB0009E3F510580F00C94AF0D0C94FA0D5F3FE0
:101CC000E4F3983ED4F3869577956795B795F795A5
:101CD000E7959F5FC1F7FE2B880F911D969587951D
:101CE00097F90895EE0FFF1F0590F491E02D0994E8
:041CF000F894FFCF96
:061CF400E803E803E80329
:00000001FF
