:100000000C9463000C9480000C9480000C9480008D
:100010000C9480000C9480000C9480000C94800060
:100020000C9480000C9480000C944C010C94720190
:100030000C9480000C9480000C9480000C94800040
:100040000C9480000C9480000C9480000C94800030
:100050000C9480000C9498010C94D5010C948000B1
:100060000C9480000C9480000C9480000C94800010
:100070000C9480000C9480000C9480000C94800000
:100080000C9480000C9480000C9480000C948000F0
:100090000C9480000C9480000C9480000C948000E0
:1000A0000C9480000C9480000C9480005D09610920
:1000B00077096309770965096C0989098909700954
:1000C00089098909080311241FBECFEFDAE0DEBFDA
:1000D000CDBF22E0A0E0B1E001C01D92A639B20779
:1000E000E1F710E0C3E6D0E004C02197FE010E94D2
:1000F000330CC236D107C9F70E94B2020C94390CF6
:100100000C940000683040F470E0660F771FFC012B
:10011000E60FF71F5183408308957F928F929F923D
:10012000AF92BF92CF92DF92EF92FF920F931F9305
:10013000CF93DF93762EEA018901C82ED92EA82EFF
:10014000B92EE12CF12C88248394912CC4010E2C1F
:1001500002C0880F991F0A94E2F7972D98239813ED
:1001600007C0F50180819181009711F00E9437034B
:10017000FFEFEF1AFF0A22E0A20EB11C87E0E8169B
:10018000F10421F7209791F1AE01E9EFF0E031970A
:10019000F1F700C0000041505109B9F727C0C7016D
:1001A0000C2E02C0880F991F0A94E2F7972D98230E
:1001B000981307C0F60180819181009711F00E9489
:1001C00048032196F2E0CF0ED11CC730D10539F794
:1001D0000115110589F0980189EF90E00197F1F779
:1001E00000C0000021503109B9F706C0C0E0D0E0DE
:1001F000EE24E394F12CD3CFDF91CF911F910F9197
:10020000FF90EF90DF90CF90BF90AF909F908F9036
:100210007F90089520E14DE06DE271E00E94F106CB
:1002200081E008950F934091F2005091F30021B3C3
:1002300066E271E00E94E40682E591E00E94880394
:1002400091E0892780930001E6E2F1E02481358185
:100250004281538160817181068182E591E00E9433
:10026000BE0382FD806181BB8091030190910401F6
:10027000A0910501B09106010196A11DB11D8093C9
:10028000030190930401A0930501B093060181E05E
:10029000809301010F9108951F920F920FB60F9254
:1002A00011242F933F934F935F936F937F938F937B
:1002B0009F93AF93BF93EF93FF9386E791E00E94E4
:1002C000A008FF91EF91BF91AF919F918F917F9186
:1002D0006F915F914F913F912F910F900FBE0F90B3
:1002E0001F9018951F920F920FB60F9211242F9303
:1002F0003F934F935F936F937F938F939F93AF93AE
:10030000BF93EF93FF9386E791E00E941C09FF9152
:10031000EF91BF91AF919F918F917F916F915F917D
:100320004F913F912F910F900FBE0F901F901895F6
:1003300078941F920F920FB60F9211242F933F9330
:100340004F935F936F937F938F939F93AF93BF93DD
:10035000EF93FF9382E591E00E944E0591B3829561
:10036000880F807E8F61982391BB37B525B381E0DC
:1003700090E002C0880F991F3A95E2F7809590951A
:1003800030E08223932385BBFF91EF91BF91AF9122
:100390009F918F917F916F915F914F913F912F919D
:1003A0000F900FBE0F901F90189578941F920F9288
:1003B0000FB60F9211242F933F934F935F936F9338
:1003C0007F938F939F93AF93BF93EF93FF9381B3EB
:1003D000806E81BB82E591E00E94180538B525B397
:1003E00081E090E002C0880F991F3A95E2F780956E
:1003F000909530E08223932385BBFF91EF91BF91CD
:10040000AF919F918F917F916F915F914F913F91AC
:100410002F910F900FBE0F901F9018958F929F9263
:10042000AF92CF92EF92FF920F931F93CF93DF93F0
:10043000CDB7DEB728970FB6F894DEBF0FBECDBF9D
:1004400083E08A8381E08B838C831D828AEF8E8395
:100450001F8218860F2EF4EF8F2E99249394F02D7F
:10046000A12CCC24C394E12C00E010E020E030E487
:100470004FEF50E060E07FEF86E791E00E94580781
:10048000E980FA800B811C812D813E814F81588546
:1004900061E086E791E00E94F905E980FA8000E0DA
:1004A0001C812D8139E14F81588562E086E791E01A
:1004B0000E94F9054AE051E061E086E791E00E9480
:1004C0008F0842E151E062E086E791E00E948F08E8
:1004D00028960FB6F894DEBF0FBECDBFDF91CF9147
:1004E0001F910F91FF90EF90CF90AF909F908F90C2
:1004F00008958FEF84B987B990EE9AB980BB82E0F6
:1005000084BD15BC82E887BD81E488BD16BCEEE6DB
:10051000F0E080818660808343E251E060E087E024
:1005200091E00E94820040E251E061E087E091E0CA
:100530000E948200089527E131E04AE151E06DE137
:1005400071E082E591E00E946E032FEF80E792E078
:10055000215080409040E1F700C00000479A82E0BF
:1005600085BD08950E9479020E940E0209C026E905
:1005700030E046E950E063E087E091E00E948D00C2
:1005800086E791E00E94C206882389F30E949B02BD
:10059000CDE2D1E01AEA8091030190910401A0918B
:1005A0000501B091060189879A87AB87BC8782E5F0
:1005B00091E00E94A9039983888382E591E00E94DB
:1005C000AF039B838A8382E591E00E94B5039D83FC
:1005D0008C8382E591E00E94BB038E831F83809110
:1005E0000001982F990F990F80910101880F892B95
:1005F00090910201892B88871092010124EF31E04C
:100600004CED55E061E087E091E00E948D00C3CFA2
:10061000EAE3F1E083E0858B168A178A45E06BE216
:1006200070E083E291E00E94320340E065E270E016
:1006300080E291E00E94320344E061E370E08DE1EA
:1006400091E00E94320341E061E370E08AE191E0D1
:100650000E94320340E061E370E087E191E00E9494
:1006600032030895FC017183608342830895DC01A5
:1006700012963C911297ED91FC91208181E090E0DF
:1006800002C0880F991F3A95E2F7822B8083089564
:10069000DC0112963C911297ED91FC91208181E052
:1006A00090E002C0880F991F3A95E2F780959095E7
:1006B00030E08223932380830895DC0112963C91DD
:1006C0001297ED91FC91208181E090E002C0880FAB
:1006D000991F3A95E2F7822780830895FC01778F6E
:1006E000668F51A340A333A322A3158214821382E1
:1006F000128211821082138612861186108617824A
:100700001682178A168A158A148A138A128A0895FD
:10071000FC01858D089525B12071FC01818D83FD3B
:1007200002C090E001C090E8292B82FD02C090E059
:1007300001C090E6292B81FD02C090E001C090E449
:10074000292B80FD02C080E001C080E1282B25B963
:100750000895FC0180819181959587950895FC010C
:1007600082819381959587950895FC018481958177
:10077000959587950895FC01818D08952F923F925C
:100780004F925F926F927F928F929F92AF92BF92A1
:10079000CF92DF92EF92FF920F931F93CF93DF934D
:1007A000CDB7DEB72C970FB6F894DEBF0FBECDBF26
:1007B0002C013B01660C771CDC0117967C926E9233
:1007C00016975A01AA0CBB1C1996BC92AE921897A8
:1007D0001901220C331C1B963C922E921A978D9075
:1007E0009C90C40186199709BC0122F466277727DB
:1007F000681B790B072E000C880B990B0E94110BBC
:1008000069837A838B839C83F201C280D380C60183
:100810008A199B09BC0122F466277727681B790B8C
:10082000072E000C880B990B0E94110B6D837E83A1
:100830008F839887D2011496ED90FC901597C7018D
:1008400082199309BC0122F466277727681B790B6C
:10085000072E000C880B990B0E94110B69877A8771
:100860008B879C8720E030E048E453E469817A81FB
:100870008B819C810E949D0B181644F480E090E0CF
:10088000A8E4B3E489839A83AB83BC8320E030E09F
:1008900048E453E46D817E818F8198850E949D0B91
:1008A000181644F480E090E0A8E4B3E48D839E83BE
:1008B000AF83B88720E030E048E453E469857A8567
:1008C0008B859C850E949D0B181644F480E090E077
:1008D000A8E4B3E489879A87AB87BC8729813A81EA
:1008E0004B815C8160E070E088E493E40E946E0AD2
:1008F00020E030E040E450E40E94020A0E94E00A56
:10090000D20153967C936E9352971D967C936E936F
:100910001C972D813E814F81588560E070E088E40E
:1009200093E40E946E0A20E030E040E450E40E942C
:10093000020A0E94E00AF201758B648B7787668752
:1009400029853A854B855C8560E070E088E493E416
:100950000E946E0A20E030E040E450E40E94020A67
:100960000E94E00AD20157967C936E935697519657
:100970007C936E9350976814790414F48FEF01C040
:1009800081E0F201828FAC14BD049CF091E0938F62
:100990002E143F04A4F423C0126018164CF5146002
:1009A00027C091E0F201948F11E01816C4F310E013
:1009B000F6CF9FEF938F2E143F049CF709C091E070
:1009C000F201948F11E018160CF010E081E0E4CFF2
:1009D0009FEF948F11E018165CF010E009C09FEFB4
:1009E000F201948F11E018160CF010E08FEFD4CFC5
:1009F000D20159960C93C2010E948B03812F2C9631
:100A00000FB6F894DEBF0FBECDBFDF91CF911F911F
:100A10000F91FF90EF90DF90CF90BF90AF909F909D
:100A20008F907F906F905F904F903F902F900895A0
:100A3000FC0164857585228933893695279581E087
:100A40006217730709F080E0468557852489358948
:100A5000369527954217530709F48260208931891A
:100A6000A689B789B695A7952A173B0709F484602C
:100A70006115710521F06150710975876487411511
:100A8000510521F0415051095787468721153105FD
:100A900021F021503109318B208B0895FC01848590
:100AA0009585892BA9F480819181268137818217D0
:100AB000930789F0228D820F911D27FD9A959183CE
:100AC000808382899389958784878EEF91E005C022
:100AD0008FEF90E002C08FEF90E026853785232BC3
:100AE000A1F422813381408551852417350769F0AF
:100AF0008D7F438D240F311D47FD3A95338322832B
:100B000024893589378726879F5F20893189232B60
:100B1000A1F424813581428553852417350769F076
:100B20008B7F448D240F311D47FD3A9535832483F7
:100B300026893789318B208B9F5F933018F091E0A5
:100B4000958F0895158E08958AE482BF89B58061D6
:100B500089BD89B5826089BD09B400FEFDCF0895C5
:100B6000FC0189E084A782E085A789E090E097A74F
:100B700086A710AA81E081AB87AD882339F0DF0119
:100B8000AD5BBF4F8C918F5F8C9301C080E082ABD7
:100B9000611102C080EC01C080E8411102C090E008
:100BA00001C090E2892B83AB3695279524AB08953D
:100BB000FC0189E085AB84E086AB17AA10AE11AECC
:100BC0008FEF82AF13AE84AF87AD882339F0DF019A
:100BD000AD5BBF4F8C918F5F8C9301C080E085AF80
:100BE00080A98F5F80AB86A597A5099697A786A752
:100BF0000895EF92FF920F931F93CF93DF93CDB79A
:100C0000DEB728970FB6F894DEBF0FBECDBFE982DE
:100C10007F2DFA820B831C832D833E834F8358875D
:100C2000F8942FEF260F263008F09EC0462F50E094
:100C3000FA829A01220F331F220F331F220F331F14
:100C40008C01020F131F08511F4F6894FF24F3F803
:100C5000FE013196D80101900D92FA94E1F7E1E09E
:100C6000D801EC93241B350B280F391FF901E954E7
:100C7000FF4FA7E0A083319625E020832B81213010
:100C800011F0A0E001C0A0E89A01220F331F220F4B
:100C9000331F220F331F241B350B280F391FF90177
:100CA000E754FF4F6A2B60833196672F6370608330
:100CB000D901A554BF4FE8E0F0E00C8002C0EE0F70
:100CC000FF1F0A94E2F7ED93FC93F901E354FF4F01
:100CD0001082733031F4F901E354FF4F2E812083E9
:100CE00023C0713009F5FA01EE0FFF1FEE0FFF1F51
:100CF000EE0FFF1FE41BF50BE80FF91FDF01A354F4
:100D0000BF4F21E02C93E654FF4F2F812370622FB9
:100D1000660F660F38853370B0E13B9F9001112458
:100D2000262B3081232B2083FC0121AD2F5F21AFA7
:100D3000FA01EE0FFF1FEE0FFF1FEE0FFF1FE41B68
:100D4000F50BE80FF91FE954FF4F4081DC019E9637
:100D50002D913C919F97240F311D9F963C932E938C
:100D60009E97789481E001C080E028960FB6F894B1
:100D7000DEBF0FBECDBFDF91CF911F910F91FF90CE
:100D8000EF900895FC0186AD0895E8EEF0E08081D3
:100D900080FFFDCF0895E8EEF0E020812A772083E0
:100DA000FC01EE5BFF4F10820895EBEEF0E08081D6
:100DB0008062808308956F706093E900EBEEF0E04D
:100DC00080818061808308958FEF840F442341F0F8
:100DD000E62FF72FA1EFB0E09C9191938150E0F7BF
:100DE0000895CF93DF93DC01AE5BBF4F3C91842F1E
:100DF00090E0830F911D30E0281739078CF04423D1
:100E000079F090E0C1EFD0E0FD01DB01A90FB11D49
:100E10008C91888320812F5F20839F5F9413F5CF6F
:100E2000DF91CF9108958F708093E90008950F931B
:100E3000CF93DF9300D000D000D0CDB7DEB71E82B5
:100E40001D826C834B832A8309839C814B8150E4F0
:100E5000959F90011124242B2E839A812981422F62
:100E6000440F440F50E1959F90011124242B2D83B2
:100E70008F708093E900EBEEF0E0808181608083E9
:100E8000EDEEF0E010828E818093EC008D81826027
:100E900080838091EE00881F8827881F26960FB6D2
:100EA000F894DEBF0FBECDBFDF91CF910F910895B3
:100EB0002F923F924F925F926F927F928F929F926A
:100EC000AF92CF92EF92FF920F931F93CF93DF9346
:100ED00000D000D0CDB7DEB73C011B012A01098349
:100EE0001A832B833C83F894DC01DE961C920E94CB
:100EF000A405FF24F394F092D700E8EDF0E08081A0
:100F0000806180838081806A808380818F7D8083FF
:100F1000E0EEF0E080818E7F808388E08093E200C5
:100F2000F301E7AE69817A818B819C810E94E00A9E
:100F3000062F10E082E1D30150968C935097519682
:100F4000FC9220E030E040E251E469817A818B81BB
:100F50009C810E94A20B69837A838B839C83B80156
:100F6000660F771FC801880F991F880F991F880F78
:100F7000991F680F791F072E000C880B990B0E9490
:100F8000110B9B01AC0169817A818B819C810E944C
:100F9000010A0E94E00A6295607F102F0027062B4D
:100FA000F301138B028B148A158A168A80E4878BCF
:100FB000318E208E538E428E81E091E0958F848F0A
:100FC000EE2009F44CC0ED5BFF4F80818F5FD301B1
:100FD0005E968C935E978F5F5F968C938F5F808316
:100FE000F30180A381E081A39AE092A396E093A30A
:100FF00015A304A316A217A210A690E491A782A796
:1010000013A694014A2D6C2DC3010E94B005C301A3
:101010000E94D80581E3F301E954FF4FDF011D92DF
:101020008A95E9F780E090E0FC01EE0FFF1FE60DE6
:10103000F71DE755FF4F1182108201968730910509
:1010400099F7F301EC5BFF4F81E0808300E023E040
:1010500041E060E080E00E941707789405C0F3014A
:10106000168E178E80E0BCCF0F900F900F900F90D0
:10107000DF91CF911F910F91FF90EF90CF90AF90A4
:101080009F908F907F906F905F904F903F902F90A8
:101090000895DF92EF92FF920F931F93CF93DF9308
:1010A000EC01CC50DF4F11E00F2EF0EFEF2EF12CC2
:1010B000F02DFE01339760813196D08031962081EA
:1010C000088133978081882379F04D2D812F0E94EC
:1010D0001707D11005C0F70180818460808304C0A8
:1010E000F7018081816080831F5F2896173009F7A0
:1010F000DF91CF911F910F91FF90EF90DF900895B6
:101100000F9300E023E040E060E080E00E941707DA
:101110001092E90088E08093F0000F910895FC019F
:101120009FEF960F963058F470E0660F771FCF014F
:10113000860F971FFC01E755FF4F518340830895A9
:10114000E1EEF0E08081108283FD0E948008089526
:10115000CF93DF9300D0CDB7DEB719821A82FC019E
:10116000268142E0BE016F5F7F4F0E94F10681E061
:101170000F900F90DF91CF910895FC018281E3EEF3
:10118000F0E0808380818068808381E00895EF9221
:10119000FF920F931F93CF93DF938C01FC01838108
:1011A000823071F08630A9F18130F1F5B801605FCD
:1011B0007F4F268142E1C8010E94F10681E035C0DF
:1011C000F801268149E0B801645D7F4FC8010E94A3
:1011D000F106F801268149E0B8016B5C7F4FC80138
:1011E0000E94F106E801C254DF4F7801F8EEEF0EDD
:1011F000F11C8881882339F0F801268147E0BE017F
:10120000C8010E94F1062796CE15DF0591F781E00F
:101210000CC0B8016E5D7F4FF80126814AE0C8011D
:101220000E94F10681E001C080E0DF91CF911F9123
:101230000F91FF90EF9008958F929F92AF92BF927F
:10124000CF92DF92EF92FF920F931F93CF93DF9392
:101250001F92CDB7DEB77C018091F400F701EF5B00
:10126000FF4F8083E9EEF0E08081D701A05CBF4FA3
:101270008C9310828091E8008983898183FF89C0E3
:10128000E0EFF0E08081877F80834091F200509111
:10129000F300B701C7010E94E40682EF8093E800E3
:1012A0007894D7018C91882324F4C7010E94C50645
:1012B00062C0C7010E94CB065EC0C7010E94A80899
:1012C00022C0000022C0000020C0C7010E94C50645
:1012D000C7010E94BD0817C0C7010E94C70813C0FC
:1012E000C7010E94490881E0F70186AF0EC0F701EF
:1012F000E755FF4F80819181892B59F00190F08152
:10130000E02DC7010995882321F0C7010E94CB0673
:1013100003C0C7010E94D5061092E900E0EFF0E09B
:1013200080818860808335C0302FA801D6012C9140
:10133000C501002E02C0880F991F0A94E2F7922F70
:10134000982398130BC0F801EE0FFF1FEE0DFF1D41
:10135000E755FF4F80819181892B51F50F5F1F4F1A
:101360000730110509F7F701E05CFF4F80818F70AE
:101370008093E90030C0D7011196EC918E2F90E058
:101380008C30910508F0B3CFFC01EA5AFF4F0C9462
:10139000330C01E010E0AA24A394B12C6701B1E45E
:1013A000CB0ED11C0F2EF9EE8F2E912CF02DBCCF31
:1013B0003F70F4013083440F551F4E0D5F1DFA013D
:1013C000E755FF4F0190F081E02DC7010995C70156
:1013D0000E94CB06C3CF0F90DF91CF911F910F9149
:1013E000FF90EF90DF90CF90BF90AF909F908F9045
:1013F000089580E0089580E0089580E0089580E0F9
:1014000008955058BB27AA270E94190A0C94630B11
:101410000E94550B38F00E945C0B20F039F49F3F7E
:1014200019F426F40C94520B0EF4E095E7FB0C949F
:101430004C0BE92F0E94740B58F3BA17620773071D
:101440008407950720F079F4A6F50C94960B0EF41A
:10145000E0950B2EBA2FA02D0B01B90190010C01C4
:10146000CA01A0011124FF27591B99F0593F50F4DC
:10147000503E68F11A16F040A22F232F342F442734
:10148000585FF3CF469537952795A795F04053952C
:10149000C9F77EF41F16BA0B620B730B840BBAF0FC
:1014A0009150A1F0FF0FBB1F661F771F881FC2F767
:1014B0000EC0BA0F621F731F841F48F4879577957B
:1014C0006795B795F7959E3F08F0B0CF9395880F35
:1014D00008F09927EE0F9795879508950E94820A44
:1014E0000C94630B0E945C0B58F00E94550B40F06B
:1014F00029F45F3F29F00C944C0B51110C94970B7D
:101500000C94520B0E94740B68F39923B1F355238A
:1015100091F3951B550BBB27AA2762177307840706
:1015200038F09F5F5F4F220F331F441FAA1FA9F39C
:1015300035D00E2E3AF0E0E832D091505040E6958A
:10154000001CCAF72BD0FE2F29D0660F771F881FEB
:10155000BB1F261737074807AB07B0E809F0BB0BDE
:10156000802DBF01FF2793585F4F3AF09E3F5105F2
:1015700078F00C944C0B0C94970B5F3FE4F3983E7F
:10158000D4F3869577956795B795F7959F5FC9F7DB
:10159000880F911D9695879597F90895E1E0660F5C
:1015A000771F881FBB1F621773078407BA0720F0D5
:1015B000621B730B840BBA0BEE1F88F7E09508953E
:1015C0000E947C0B88F09F5798F0B92F9927B7514C
:1015D000B0F0E1F0660F771F881F991F1AF0BA95D7
:1015E000C9F714C0B13091F00E94960BB1E0089594
:1015F0000C94960B672F782F8827B85F39F0B93F86
:10160000CCF3869577956795B395D9F73EF4909589
:101610008095709561957F4F8F4F9F4F0895E89407
:1016200009C097FB3EF490958095709561957F4F2A
:101630008F4F9F4F9923A9F0F92F96E9BB279395D8
:10164000F695879577956795B795F111F8CFFAF4E8
:10165000BB0F11F460FF1BC06F5F7F4F8F4F9F4F19
:1016600016C0882311F096E911C0772321F09EE877
:10167000872F762F05C0662371F096E8862F70E0DD
:1016800060E02AF09A95660F771F881FDAF7880FB7
:101690009695879597F9089597F99F6780E870E088
:1016A00060E008959FEF80EC089500240A941616D8
:1016B000170618060906089500240A941216130640
:1016C000140605060895092E0394000C11F48823CE
:1016D00052F0BB0F40F4BF2B11F460FF04C06F5FEA
:1016E0007F4F8F4F9F4F089557FD9058440F551FC0
:1016F00059F05F3F71F04795880F97FB991F61F094
:101700009F3F79F087950895121613061406551F0A
:10171000F2CF4695F1DF08C0161617061806991F76
:10172000F1CF86957105610508940895E894BB276B
:1017300066277727CB0197F908950E940F0C08F4CC
:101740008FEF08950E94B50B0C94630B0E94550B0C
:1017500038F00E945C0B20F0952311F00C944C0B98
:101760000C94520B11240C94970B0E94740B70F381
:10177000959FC1F3950F50E0551F629FF001729F36
:10178000BB27F00DB11D639FAA27F00DB11DAA1F45
:10179000649F6627B00DA11D661F829F2227B00D92
:1017A000A11D621F739FB00DA11D621F839FA00D1D
:1017B000611D221F749F3327A00D611D231F849F6D
:1017C000600D211D822F762F6A2F11249F575040C4
:1017D0009AF0F1F088234AF0EE0FFF1FBB1F661F3F
:1017E000771F881F91505040A9F79E3F510580F008
:1017F0000C944C0B0C94970B5F3FE4F3983ED4F39E
:10180000869577956795B795F795E7959F5FC1F7AB
:10181000FE2B880F911D9695879597F90895990F3E
:101820000008550FAA0BE0E8FEEF16161706E807AA
:10183000F907C0F012161306E407F50798F0621BCB
:10184000730B840B950B39F40A2661F0232B242BA0
:10185000252B21F408950A2609F4A140A6958FEFBF
:10186000811D811D0895EE0FFF1F0590F491E02D5D
:061870000994F894FFCF7B
:00000001FF
