:100000000C9463000C948B000C948B000C948B006C
:100010000C948B000C948B000C948B000C948B0034
:100020000C948B000C948B000C94D3010C94F9016C
:100030000C948B000C948B000C948B000C948B0014
:100040000C948B000C948B000C948B000C948B0004
:100050000C947A030C941F020C9455020C948B00A0
:100060000C948B000C948B000C948B000C948B00E4
:100070000C948B000C948B000C948B000C948B00D4
:100080000C948B000C948B000C948B000C948B00C4
:100090000C948B000C948B000C948B000C948B00B4
:1000A0000C948B000C948B000C948B00DB0ADF0A01
:1000B000F30ADF0AF30AE10AE80A330B330BEC0A0E
:1000C000330B330B0A0411241FBECFEFDAE0DEBF7F
:1000D000CDBF11E0A0E0B1E0E6E8FBE102C0059091
:1000E0000D92A630B107D9F722E0A6E0B1E001C039
:1000F0001D92A139B207E1F710E0C3E6D0E004C0D9
:100100002197FE010E94BB0DC236D107C9F70E949C
:10011000A2030C94C10D0C940000683038F4FC016B
:10012000E60FF11DE60FF11D5183408308956F9294
:100130007F928F929F92BF92CF92DF92EF92FF9227
:100140000F931F93CF93DF9300D0CDB7DEB7D62E9A
:10015000B22EC32E8C017C01612C712C88248394D7
:10016000912CC401062C01C0880F0A94EAF79D2D3A
:10017000982398130BC0F70180819181009731F08B
:1001800049835A830E9423045A814981FFEF6F1AE1
:100190007F0A22E0E20EF11C87E06816710409F77D
:1001A000FA01309741F089EF90E00197F1F700C034
:1001B00000003197F6CF812C912CEE24E394F12CA2
:1001C000C701082C01C0880F0A94EAF79D2D9823D7
:1001D000981307C0F80180819181009711F00E9467
:1001E0003304FFEF8F1A9F0A0E5F1F4F27E082161E
:1001F000910431F78B2D9C2D009741F0E9EFF0E051
:100200003197F1F700C000000197F6CF0F900F90E3
:10021000DF91CF911F910F91FF90EF90DF90CF90E2
:10022000BF909F908F907F906F90089520E14DE058
:100230006CE271E00E94850881E008950F93CF93EE
:100240004091F2005091F30065E271E00E947D0858
:1002500081E591E00E945C04C1E08C278093080155
:10026000E5E2F1E00681248135814281538160819C
:10027000718181E591E00E94AE0480910B01909123
:100280000C01A0910D01B0910E010196A11DB11DAF
:1002900080930B0190930C01A0930D01B0930E017C
:1002A000C093090181E0CF910F9108958F929F92A1
:1002B000AF92BF92CF92DF92EF92FF920F931F9374
:1002C000CF93DF93CDB7DEB760970FB6F894DEBF5C
:1002D0000FBECDBF9B2D6C2D892D823A49F170F454
:1002E000803AA9F0813A09F04AC015BC4A2D50E085
:1002F0005B2981E591E00E94920421C0843A29F1B2
:1003000008F1853AE1F581E08093060138C015BC1B
:100310004A2D50E05B29052E000C660B770B4093AD
:100320000B0150930C0160930D0170930E0107C0F7
:1003300015BC8A2D90E09595879588BDA7BC82E075
:1003400085BD1DC010920701FACFC11007C0B12CA6
:10035000B92AB0920501A092040111C0613039F4AC
:10036000B12CB92AB0920301A092020108C06230F8
:1003700031F4B12CB92AB0920101A092000181E0C0
:1003800060960FB6F894DEBF0FBECDBFDF91CF9160
:100390001F910F91FF90EF90DF90CF90BF90AF90A3
:1003A0009F908F9008951F920F920FB60F92112475
:1003B0002F933F934F935F936F937F938F939F936D
:1003C000AF93BF93EF93FF938FE691E00E94100AE3
:1003D000FF91EF91BF91AF919F918F917F916F911D
:1003E0005F914F913F912F910F900FBE0F901F90F3
:1003F00018951F920F920FB60F9211242F933F93CF
:100400004F935F936F937F938F939F93AF93BF931C
:10041000EF93FF938FE691E00E94840AFF91EF91A2
:10042000BF91AF919F918F917F916F915F914F910C
:100430003F912F910F900FBE0F901F9018957894B9
:100440001F920F920FB60F9211242F933F934F9349
:100450005F936F937F938F939F93AF93BF93EF932C
:10046000FF9381E591E00E948C0637B525B381E0CA
:1004700090E002C0880F991F3A95E2F78095909519
:1004800030E08223932385BBFF91EF91BF91AF9121
:100490009F918F917F916F915F914F913F912F919C
:1004A0000F900FBE0F901F90189578941F920F9287
:1004B0000FB60F9211242F933F934F935F936F9337
:1004C0007F938F939F93AF93BF93EF93FF9381E5B8
:1004D00091E00E943D0638B525B381E090E002C06E
:1004E000880F991F3A95E2F78095909530E0822326
:1004F000932385BBFF91EF91BF91AF919F918F9116
:100500007F916F915F914F913F912F910F900FBE0F
:100510000F901F9018958F929F92AF92CF92EF926B
:10052000FF920F931F93CF93DF93CDB7DEB728973A
:100530000FB6F894DEBF0FBECDBF83E08A8381E0A3
:100540008B838C831D828AEF8E831F82188684EFB3
:10055000882E99249394A12CCC24C394E12C00E000
:1005600010E020E030E44FEF50E060E07FEF8FE6F6
:1005700091E00E94DE08E980FA800B811C812D81C8
:100580003E814F81588561E08FE691E00E945707D8
:10059000E980FA8000E01C812D8139E14F81588586
:1005A00062E08FE691E00E94570746E151E061E08A
:1005B0008FE691E00E94FB094EE151E062E08FE698
:1005C00091E00E94FB0966E571E08FE691E02896D4
:1005D0000FB6F894DEBF0FBECDBFDF91CF911F9154
:1005E0000F91FF90EF90CF90AF909F908F900C94D1
:1005F0000A0A8FEF84B987B990E69AB980BB82E086
:1006000084BD15BC1092800081E08093810082E857
:1006100087BD81E488BD16BCEEE6F0E0808186608F
:100620008083EFE6F0E080818160808342E251E0E8
:1006300060E08FE091E00E948D004FE151E061E0C9
:100640008FE091E00C948D0081E591E00E944804D8
:100650002FEF80E792E0215080409040E1F700C00A
:100660000000479A82E085BD0895CF93DF93809183
:100670000B0190910C01A0910D01B0910E01CCE203
:10068000D1E089879A87AB87BC8781E591E00E949A
:100690007D049983888381E591E00E9483049B8394
:1006A0008A8381E591E00E9489049D838C8381E5A2
:1006B00091E00E948F048E8381E591E00E949D0667
:1006C0008F838091070138E0839FA001112420913E
:1006D000080134E0239FC0011124842B20910A01DA
:1006E000982F922B80910901880F892B8887DF91A1
:1006F000CF91089578941F920F920FB60F92112404
:100700002F933F934F935F936F937F938F939F9319
:10071000AF93BF93EF93FF930E94350310920901AB
:10072000B098FF91EF91BF91AF919F918F917F9181
:100730006F915F914F913F912F910F900FBE0F904E
:100740001F9018950E94F9020E948B028FE691E09B
:100750000E94010881110AC026E930E046E950E014
:1007600063E08FE091E00E949700F0CF0E942403A5
:10077000D1E0C2E081E591E00E949D0691E0811107
:1007800001C090E09093070180910601882389F1D0
:100790001092060181E591E00E94180780930A01FA
:1007A00015BCC5BD80910A018D278093070121C02A
:1007B00081E591E00E949D0691E0811101C090E0E9
:1007C0009093070124EF31E044EF51E061E08FE0C6
:1007D00091E00E94970024EF31E044EF51E063E0A4
:1007E0008FE091E00E94970080910701882331F00B
:1007F00015BC809107018111DBCF02C0C5BDF9CFC7
:100800002EE531E04EE551E063E08FE091E00E949B
:100810009700B0CFE9E3F1E083E0858B168A178A71
:1008200045E06BE270E082E291E00E941E0440E04D
:1008300065E270E08FE191E00C941E04FC0171838D
:10084000608342830895DC0112963C911297ED91EA
:10085000FC91208181E090E001C0880F3A95EAF791
:10086000822B80830895DC0112963C911297ED91C2
:10087000FC91208181E090E002C0880F991F3A9599
:10088000E2F78095909530E082239323808308954A
:10089000FC01158214821382128211821082138647
:1008A00012861186108617821682178A168A158A72
:1008B000148A138A128A0895FC01858D089525B142
:1008C0002071FC01318D33FD02C080E001C080E861
:1008D000282B32FD02C090E001C090E6292B31FDAB
:1008E00002C090E001C090E4922B30FD02C080E095
:1008F00001C080E1892B85B90895FC018081918137
:10090000959587950895FC018281938195958795AA
:100910000895FC0184819581959587950895FC0142
:10092000818D0895FC01611107C0440F551F578345
:100930004683518340830895613039F4440F551F35
:1009400051874087538342830895623031F4440FC6
:10095000551F538742875583448308952F923F92B2
:100960004F925F926F927F928F929F92AF92BF92BF
:10097000CF92DF92EF92FF920F931F93CF93DF936B
:10098000CDB7DEB72C970FB6F894DEBF0FBECDBF44
:100990009C878B8711B31C7E1B01220C331CFC012E
:1009A00037822682BA01660F771F7A83698371873F
:1009B0006087C901880F991F9C838B8393878287E7
:1009C0000190F081E02DFE83ED83BF016219730970
:1009D00077FF03C0719561957109072E000C880B94
:1009E000990B0E94990C2B013C01EB85FC85028040
:1009F000F381E02DF887EF83BF0149815A81641BA1
:100A0000750B77FF03C0719561957109072E000C76
:100A1000880B990B0E94990C4B015C01EB85FC85BE
:100A20000480F581E02DFA87E987BF014B815C8165
:100A3000641B750B77FF03C0719561957109072ED3
:100A4000000C880B990B0E94990C6B017C0120E033
:100A500030E048E453E4C301B2010E94490D181686
:100A60004CF020E030E0A901C301B2010E94F10B7B
:100A7000811106C0412C512C28E4622E23E4722EF1
:100A800020E030E048E453E4C501B4010E94490D80
:100A900018164CF020E030E0A901C501B4010E9415
:100AA000F10B811106C0812C912C98E4A92E93E4BE
:100AB000B92E20E030E048E453E4C701B6010E94BB
:100AC000490D18164CF020E030E0A901C701B6012D
:100AD0000E94F10B811106C0C12CD12C88E4E82EB4
:100AE00083E4F82EA301920160E070E088E493E4CF
:100AF0000E94F60B20E030E040EA50E40E94850BB3
:100B00000E94680CEB85FC85738B628B758764870C
:100B1000A501940160E070E088E493E40E94F60B84
:100B200020E030E040EA50E40E94850B0E94680C0F
:100B3000EB85FC85758B648B77876687A7019601AB
:100B400060E070E088E493E40E94F60B20E030E07F
:100B500040EA50E40E94850B0E94680CEB85FC85FE
:100B6000778B668B718B608B4D815E812416350689
:100B700014F42FEF01C021E0EB85FC85228F4F811B
:100B8000588569817A816417750714F49FEF01C055
:100B900091E0EB85FC85938F49855A856B817C813B
:100BA0006417750714F48FEF01C081E0EB85FC85B5
:100BB000848F213009F41160913009F41260813082
:100BC00009F4106111BBEB85FC85018FCF010E94F8
:100BD0005F04EB85FC85158E812F2C960FB6F8945B
:100BE000DEBF0FBECDBFDF91CF911F910F91FF9060
:100BF000EF90DF90CF90BF90AF909F908F907F90BD
:100C00006F905F904F903F902F900895FC01648506
:100C1000758582899389969587956817790710F06D
:100C200080E201C080E04685578524893589369564
:100C300027954217530708F0806420893189A689D7
:100C4000B789B695A7952A173B0708F08068611504
:100C5000710521F06150710975876487411551054F
:100C600021F041505109578746872115310521F060
:100C700021503109318B208B08950E94060691B3D3
:100C8000892B81BB0895FC01808191812681378168
:100C90008217930789F024853585232B69F4228DEB
:100CA000820F911D27FD9A95918380838289938974
:100CB0009587848780E201C080E02281338140856E
:100CC00051852417350781F046855785452B61F4FA
:100CD000938D290F311D97FD3A9533832283248903
:100CE00035893787268780642481358142855385FD
:100CF0002417350781F040895189452B61F4948D83
:100D0000290F311D97FD3A9535832483268937892C
:100D1000318B208B80680895CF93DF93EC010E9484
:100D2000430691B3282F2095922391BB91E0811126
:100D300090E09D8FDF91CF91089589B129B12078FE
:100D400030E035952795359527958F71822B08953D
:100D5000EF92FF920F931F93CF93DF93EC01162F27
:100D600061110FC02C813D81359527954A815B81AA
:100D70005595479500E060EF78ED0E94AE047E0146
:100D80002BC0613091F42C813D8135952795688188
:100D900079817595679500E040EF58ED0E94AE04AB
:100DA0007E0122E0E20EF11C17C0623099F44A8104
:100DB0005B8155954795688179817595679500E0C8
:100DC00020EF38EDCE010E94AE047E0144E0E40E37
:100DD000F11C02C0E12CF12C81E090E023E0210F16
:100DE000FC0102C0EE0FFF1F2A95E2F7012E01C0A1
:100DF000880F0A94EAF70E2F082BF7018081918162
:100E0000853D934B6CF0CE010E949D068023A9F393
:100E10004EEC5FEF612FCE010E94920481E001C091
:100E200080E0DF91CF911F910F91FF90EF90089597
:100E30000F931F93CF93DF93EC0115BC83E085BD27
:100E400060E0CE010E94A806811102C010E01DC022
:100E500061E0CE010E94A8068823C1F362E0CE01C2
:100E60000E94A806182F882389F320910001309151
:100E700001014091020150910301609104017091C0
:100E8000050100E0CE010E94AE04812FDF91CF91D9
:100E90001F910F9108958AE482BF89B5806189BD51
:100EA00089B5826089BD09B400FEFDCF0895EF9237
:100EB000FF920F931F93CF93DF93CDB7DEB72897A1
:100EC0000FB6F894DEBF0FBECDBFE982FA820B8366
:100ED0001C832D833E834F8358874F2DF8942FEF2B
:100EE000260F263008F07FC0FA829C0158E0659FEB
:100EF000200D311D112426513F4F58E0FE0131963F
:100F0000D90101900D925A95E1F751E0F901508312
:100F100057E0A62FB0E09C01569F200D311D1124F3
:100F2000F901E754FF4F5083319625E020832B8150
:100F3000213011F050E001C050E877E07A9F900135
:100F40007B9F300D1124280F391FF901E554FF4F05
:100F5000652B6083B90164547F4F542F5370FB019C
:100F60005083890103541F4FE8E0F0E07F010C80BB
:100F700002C0EE0CFF1C0A94E2F7F801F182E08255
:100F800032961082433011F42E8113C0413091F417
:100F900040832F812370F4E02F9FA0011124388516
:100FA0003370E0E13E9F90011124242BFB0130813E
:100FB000232B2083FC0121AD2F5F21AF27E02A9F47
:100FC000F0012B9FF00D1124E80FF91FE754FF4F9C
:100FD0004081FC0126A537A5240F311D37A726A780
:100FE000789481E001C080E028960FB6F894DEBFC7
:100FF0000FBECDBFDF91CF911F910F91FF90EF906A
:101000000895FC0186AD0895FC0127AD222331F03F
:10101000ED5BFF4F80818F5F8083089580E00895AE
:10102000EF92FF920F931F93CF93DF9300D0CDB732
:10103000DEB77C01890189E0F70184A782E085A7FA
:1010400089E090E097A786A710AA81E081ABC7014D
:101050004A8369830E940408F70182AB69814A814F
:10106000611102C080EC01C080E8411102C090E033
:1010700001C090E2892BF70183AB1695079504AB6D
:101080000F900F90DF91CF911F910F91FF90EF90F4
:101090000895CF93DF93EC0189E08DAB84E08EABB4
:1010A0001FAA18AE19AE8FEF8AAF1BAE8CAFCE0160
:1010B0000E9404088DAF88A98F5F88AB2DA98EA5EB
:1010C0009FA5820F911D9FA78EA7DF91CF910895B5
:1010D0008091E80080FFFCCF0895E8EEF0E02081E9
:1010E0002A772083FC01EE5BFF4F10820895EBEE20
:1010F000F0E08081806280830895FB01415020F000
:101100008091F1008193FACF0895DC01AE5BBF4F6F
:101110003C91842F90E0830F911D30E02817390710
:1011200054F0FB01415038F081918093F1008C9193
:101130008F5F8C93F7CF08950F93CF93DF9300D0F9
:1011400000D000D0CDB7DEB71E821D826C834B83EA
:101150002A8309839C814B8150E4959F900111243F
:10116000242B2E839A81298164E0269FA0011124DB
:1011700060E1969F90011124242B2D838F70809322
:10118000E900EBEEF0E0808181608083EDEEF0E03D
:1011900010828E818093EC008D81826080838091AB
:1011A000EE00881F8827881F26960FB6F894DEBFAA
:1011B0000FBECDBFDF91CF910F9108952F923F9237
:1011C0004F925F926F927F928F929F92AF92BF9257
:1011D000CF92DF92EF92FF920F931F93CF93DF9303
:1011E00000D000D0CDB7DEB73C017A8369835C8341
:1011F0004B8318012901BC2CF894DC01DE961C926B
:101200000E944B0711E01093D7008091D8008061B5
:101210008093D8008091D800806A8093D800809114
:10122000D8008F7D8093D8008091E0008E7F8093DE
:10123000E00088E08093E200F301E7AEC201B10173
:101240000E94680C062F82E1D30150968C93509730
:1012500051961C9320E030E040E251E4C201B1011C
:101260000E944E0D6B017C01BAE00B9FB00111246E
:10127000072E000C880B990B0E94990C9B01AC0166
:10128000C701B6010E94840B0E94680C6295607FC2
:10129000E62EF12CF02AF301F38AE28A148A158AE9
:1012A000168A00E4078B89819A81918F808FAB81A8
:1012B000BC81B38FA28F81E091E0958F848FC301B1
:1012C0000E940408F301868FC3010E940408D30121
:1012D0005F968C93C3010E940408F30180A311A3BD
:1012E0008AE082A386E083A3F5A2E4A216A217A255
:1012F00010A601A712A713A694014A2D6B2DC301B6
:101300000E941008C3010E944908F301E754FF4FEF
:1013100081E3DF011D928A95E9F780E090E0FC010E
:10132000EE0FFF1FE60DF71DE555FF4F11821082EE
:1013300001968730910599F7F301EC5BFF4F81E04F
:10134000808300E023E041E060E080E00E949C08B0
:1013500078940F900F900F900F90DF91CF911F9185
:101360000F91FF90EF90DF90CF90BF90AF909F9044
:101370008F907F906F905F904F903F902F90089547
:10138000FF920F931F93CF93DF93EC01CA50DF4F6F
:1013900011E0FE01339760813196F0803196208113
:1013A000088133978081882369F04F2D812F0E9417
:1013B0009C088091F000F11002C0846001C081603F
:1013C0008093F0001F5F2896173019F7DF91CF91B7
:1013D0001F910F91FF9008950F9300E023E040E0EC
:1013E00060E080E00E949C081092E90088E0809311
:1013F000F0000F9108952FEF260F263050F49C0136
:10140000260F311D260F311DF901E555FF4F518380
:1014100040830895FC01E755FF4F71836083089571
:101420008091E1001092E10083FD0C94EC09089595
:10143000CF93DF9300D0CDB7DEB719821A82FC01BB
:10144000268142E0BE016F5F7F4F0E94850881E0E8
:101450000F900F90DF91CF910895FC018281E3EE10
:10146000F0E0808380818068808381E00895EF923E
:10147000FF920F931F93CF93DF93EC018B81823008
:1014800051F0863079F18130B9F5BE01605F7F4F50
:101490002E8142E12CC02E8149E0BE01645D7F4F68
:1014A000CE010E9485082E8149E0BE016B5C7F4F12
:1014B000CE010E9485088E0100541F4F7E018AEEE6
:1014C000E80EF11CF8018081882331F02E8147E07D
:1014D000B801CE010E948508095F1F4F0E151F0538
:1014E00089F708C0BE016E5D7F4F2E814AE0CE01B4
:1014F0000E94850881E001C080E0DF91CF911F91BB
:101500000F91FF90EF9008952F923F924F925F922C
:101510006F927F928F929F92AF92BF92CF92DF9203
:10152000EF92FF920F931F93CF93DF931F92CDB74C
:10153000DEB73C018091F400130191E4290E311CC7
:10154000D1018C938091E9002301B0E44B0E511C32
:10155000F20180831092E9008091E80089838981FB
:1015600083FF8BC08091F000877F8093F0004091D3
:10157000F2005091F300B301C3010E947D0882EF95
:101580008093E8007894D3018C9187FF04C0C30155
:101590000E94680803C0C3010E946D08D301119620
:1015A000EC918E2F90E08C309105E8F4FC01EA5A22
:1015B000FF4F0C94BB0DC3010E94180A4EC00000DF
:1015C0004EC0C3010E946808C3010E942D0A45C095
:1015D000C3010E94370A41C0C3010E94C00981E0D3
:1015E000F30186AF3CC0F301E755FF4F8081918145
:1015F000892BC9F10190F081E02DD3018C901196D7
:101600009C9011971296AC9012971396BC901397DA
:101610001496CC9014971596DC9015971696EC902E
:1016200016971796FC90179718960C91189719967D
:101630001C9119971A962C911A971B963C911B97FF
:101640001C964C911C971D965C911D971E966C9153
:101650001E971F967C91C3010995882321F0C30131
:101660000E946D0803C0C3010E9477081092E90030
:101670008091F00088608093F000EE24E394F12CD8
:1016800001E010E0F1012081C8010E2C01C0880F9B
:101690000A94EAF7922F982398130BC0F701EE0FE4
:1016A000FF1FE60DF71DE555FF4F80819181892BC6
:1016B00001F5FFEFEF1AFF0A87E0E816F10411F7D2
:1016C000D2018C918F708093E9000F90DF91CF91C0
:1016D0001F910F91FF90EF90DF90CF90BF90AF9050
:1016E0009F908F907F906F905F904F903F902F9042
:1016F0000895E092E9000190F081E02DC301099581
:10170000C3010E946D08D5CF5058BB27AA270E945D
:101710009C0B0C940F0D0E94010D38F00E94080DD7
:1017200020F039F49F3F19F426F40C94FE0C0EF4CB
:10173000E095E7FB0C94F80CE92F0E94200D58F37C
:10174000BA17620773078407950720F079F4A6F5A6
:101750000C94420D0EF4E0950B2EBA2FA02D0B0128
:10176000B90190010C01CA01A0011124FF27591BE6
:1017700099F0593F50F4503E68F11A16F040A22FEC
:10178000232F342F4427585FF3CF4695379527955D
:10179000A795F0405395C9F77EF41F16BA0B620B5C
:1017A000730B840BBAF09150A1F0FF0FBB1F661FA3
:1017B000771F881FC2F70EC0BA0F621F731F841FE6
:1017C00048F4879577956795B795F7959E3F08F00C
:1017D000B0CF9395880F08F09927EE0F97958795CE
:1017E00008950E94D40C08F481E008950E940A0C28
:1017F0000C940F0D0E94080D58F00E94010D40F04E
:1018000029F45F3F29F00C94F80C51110C94430D0E
:101810000C94FE0C0E94200D68F39923B1F355231C
:1018200091F3951B550BBB27AA27621773078407F3
:1018300038F09F5F5F4F220F331F441FAA1FA9F389
:1018400035D00E2E3AF0E0E832D091505040E69577
:10185000001CCAF72BD0FE2F29D0660F771F881FD8
:10186000BB1F261737074807AB07B0E809F0BB0BCB
:10187000802DBF01FF2793585F4F3AF09E3F5105DF
:1018800078F00C94F80C0C94430D5F3FE4F3983E11
:10189000D4F3869577956795B795F7959F5FC9F7C8
:1018A000880F911D9695879597F90895E1E0660F49
:1018B000771F881FBB1F621773078407BA0720F0C2
:1018C000621B730B840BBA0BEE1F88F7E09508952B
:1018D0000E94280D88F09F5798F0B92F9927B7518B
:1018E000B0F0E1F0660F771F881F991F1AF0BA95C4
:1018F000C9F714C0B13091F00E94420DB1E00895D3
:101900000C94420D672F782F8827B85F39F0B93FC4
:10191000CCF3869577956795B395D9F73EF4909576
:101920008095709561957F4F8F4F9F4F0895E894F4
:1019300009C097FB3EF490958095709561957F4F17
:101940008F4F9F4F9923A9F0F92F96E9BB279395C5
:10195000F695879577956795B795F111F8CFFAF4D5
:10196000BB0F11F460FF1BC06F5F7F4F8F4F9F4F06
:1019700016C0882311F096E911C0772321F09EE864
:10198000872F762F05C0662371F096E8862F70E0CA
:1019900060E02AF09A95660F771F881FDAF7880FA4
:1019A0009695879597F90895990F0008550FAA0BFA
:1019B000E0E8FEEF16161706E807F907C0F0121662
:1019C0001306E407F50798F0621B730B840B950B65
:1019D00039F40A2661F0232B242B252B21F40895BA
:1019E0000A2609F4A140A6958FEF811D811D089557
:1019F00097F99F6780E870E060E008959FEF80ECC2
:101A0000089500240A941616170618060906089564
:101A100000240A9412161306140605060895092ECA
:101A20000394000C11F4882352F0BB0F40F4BF2B39
:101A300011F460FF04C06F5F7F4F8F4F9F4F089579
:101A400057FD9058440F551F59F05F3F71F047956F
:101A5000880F97FB991F61F09F3F79F08795089554
:101A6000121613061406551FF2CF4695F1DF08C073
:101A7000161617061806991FF1CF86957105610590
:101A800008940895E894BB2766277727CB0197F938
:101A900008950E94D40C08F48FEF08950E94610D00
:101AA0000C940F0D0E94010D38F00E94080D20F0DB
:101AB000952311F00C94F80C0C94FE0C11240C944A
:101AC000430D0E94200D70F3959FC1F3950F50E0D8
:101AD000551F629FF001729FBB27F00DB11D639FE0
:101AE000AA27F00DB11DAA1F649F6627B00DA11D86
:101AF000661F829F2227B00DA11D621F739FB00D2C
:101B0000A11D621F839FA00D611D221F749F33279B
:101B1000A00D611D231F849F600D211D822F762F34
:101B20006A2F11249F5750409AF0F1F088234AF011
:101B3000EE0FFF1FBB1F661F771F881F915050407D
:101B4000A9F79E3F510580F00C94F80C0C94430DBE
:101B50005F3FE4F3983ED4F3869577956795B79504
:101B6000F795E7959F5FC1F7FE2B880F911D96951E
:101B7000879597F90895EE0FFF1F0590F491E02DDA
:061B80000994F894FFCF68
:061B8600E803E803E80398
:00000001FF
